{
  "_format": "hh-sol-artifact-1",
  "contractName": "HealthChain",
  "sourceName": "contracts/HealthChain.sol",
  "abi": [
    {
      "inputs": [],
      "stateMutability": "nonpayable",
      "type": "constructor"
    },
    {
      "anonymous": false,
      "inputs": [
        {
          "indexed": true,
          "internalType": "address",
          "name": "doctor",
          "type": "address"
        }
      ],
      "name": "DoctorRegistered",
      "type": "event"
    },
    {
      "anonymous": false,
      "inputs": [
        {
          "indexed": true,
          "internalType": "address",
          "name": "doctor",
          "type": "address"
        },
        {
          "indexed": true,
          "internalType": "address",
          "name": "verifier",
          "type": "address"
        }
      ],
      "name": "DoctorVerified",
      "type": "event"
    },
    {
      "anonymous": false,
      "inputs": [
        {
          "indexed": true,
          "internalType": "uint256",
          "name": "prescriptionId",
          "type": "uint256"
        },
        {
          "indexed": true,
          "internalType": "address",
          "name": "pharmacist",
          "type": "address"
        },
        {
          "indexed": false,
          "internalType": "string",
          "name": "ipfsHash",
          "type": "string"
        }
      ],
      "name": "PrescriptionDispensed",
      "type": "event"
    },
    {
      "anonymous": false,
      "inputs": [
        {
          "indexed": true,
          "internalType": "uint256",
          "name": "prescriptionId",
          "type": "uint256"
        },
        {
          "indexed": true,
          "internalType": "address",
          "name": "doctor",
          "type": "address"
        },
        {
          "indexed": true,
          "internalType": "address",
          "name": "patient",
          "type": "address"
        },
        {
          "indexed": false,
          "internalType": "string",
          "name": "ipfsHash",
          "type": "string"
        }
      ],
      "name": "PrescriptionIssued",
      "type": "event"
    },
    {
      "inputs": [],
      "name": "admin",
      "outputs": [
        {
          "internalType": "address",
          "name": "",
          "type": "address"
        }
      ],
      "stateMutability": "view",
      "type": "function"
    },
    {
      "inputs": [
        {
          "internalType": "uint256",
          "name": "_prescriptionId",
          "type": "uint256"
        },
        {
          "internalType": "string",
          "name": "_dispensedIPFS",
          "type": "string"
        }
      ],
      "name": "dispensePrescription",
      "outputs": [],
      "stateMutability": "nonpayable",
      "type": "function"
    },
    {
      "inputs": [
        {
          "internalType": "address",
          "name": "",
          "type": "address"
        }
      ],
      "name": "doctors",
      "outputs": [
        {
          "internalType": "bool",
          "name": "exists",
          "type": "bool"
        },
        {
          "internalType": "bool",
          "name": "verified",
          "type": "bool"
        },
        {
          "internalType": "string",
          "name": "ipfsHash",
          "type": "string"
        }
      ],
      "stateMutability": "view",
      "type": "function"
    },
    {
      "inputs": [
        {
          "internalType": "uint256",
          "name": "_prescriptionId",
          "type": "uint256"
        }
      ],
      "name": "getPrescription",
      "outputs": [
        {
          "components": [
            {
              "internalType": "address",
              "name": "doctor",
              "type": "address"
            },
            {
              "internalType": "address",
              "name": "patient",
              "type": "address"
            },
            {
              "internalType": "string",
              "name": "prescriptionIPFS",
              "type": "string"
            },
            {
              "internalType": "bool",
              "name": "dispensed",
              "type": "bool"
            },
            {
              "internalType": "address",
              "name": "pharmacist",
              "type": "address"
            },
            {
              "internalType": "string",
              "name": "dispensedIPFS",
              "type": "string"
            }
          ],
          "internalType": "struct HealthChain.Prescription",
          "name": "",
          "type": "tuple"
        }
      ],
      "stateMutability": "view",
      "type": "function"
    },
    {
      "inputs": [
        {
          "internalType": "address",
          "name": "_doctor",
          "type": "address"
        }
      ],
      "name": "isDoctorVerified",
      "outputs": [
        {
          "internalType": "bool",
          "name": "",
          "type": "bool"
        }
      ],
      "stateMutability": "view",
      "type": "function"
    },
    {
      "inputs": [
        {
          "internalType": "address",
          "name": "_patient",
          "type": "address"
        },
        {
          "internalType": "string",
          "name": "_prescriptionIPFS",
          "type": "string"
        }
      ],
      "name": "issuePrescription",
      "outputs": [],
      "stateMutability": "nonpayable",
      "type": "function"
    },
    {
      "inputs": [],
      "name": "prescriptionCount",
      "outputs": [
        {
          "internalType": "uint256",
          "name": "",
          "type": "uint256"
        }
      ],
      "stateMutability": "view",
      "type": "function"
    },
    {
      "inputs": [
        {
          "internalType": "uint256",
          "name": "",
          "type": "uint256"
        }
      ],
      "name": "prescriptions",
      "outputs": [
        {
          "internalType": "address",
          "name": "doctor",
          "type": "address"
        },
        {
          "internalType": "address",
          "name": "patient",
          "type": "address"
        },
        {
          "internalType": "string",
          "name": "prescriptionIPFS",
          "type": "string"
        },
        {
          "internalType": "bool",
          "name": "dispensed",
          "type": "bool"
        },
        {
          "internalType": "address",
          "name": "pharmacist",
          "type": "address"
        },
        {
          "internalType": "string",
          "name": "dispensedIPFS",
          "type": "string"
        }
      ],
      "stateMutability": "view",
      "type": "function"
    },
    {
      "inputs": [
        {
          "internalType": "string",
          "name": "_ipfsHash",
          "type": "string"
        }
      ],
      "name": "registerDoctor",
      "outputs": [
        {
          "components": [
            {
              "internalType": "bool",
              "name": "exists",
              "type": "bool"
            },
            {
              "internalType": "bool",
              "name": "verified",
              "type": "bool"
            },
            {
              "internalType": "address[]",
              "name": "verifier",
              "type": "address[]"
            },
            {
              "internalType": "string",
              "name": "ipfsHash",
              "type": "string"
            }
          ],
          "internalType": "struct HealthChain.Doctor",
          "name": "",
          "type": "tuple"
        }
      ],
      "stateMutability": "nonpayable",
      "type": "function"
    },
    {
      "inputs": [
        {
          "internalType": "address",
          "name": "_doctor",
          "type": "address"
        }
      ],
      "name": "verifyDoctor",
      "outputs": [],
      "stateMutability": "nonpayable",
      "type": "function"
    }
  ],
  "bytecode": "0x6080604052348015600f57600080fd5b50336000806101000a81548173ffffffffffffffffffffffffffffffffffffffff021916908373ffffffffffffffffffffffffffffffffffffffff1602179055506122888061005f6000396000f3fe608060405234801561001057600080fd5b506004361061009e5760003560e01c8063a9583c2211610066578063a9583c2214610184578063b6558498146101b6578063d80cb05c146101d4578063ec4cc78c146101f0578063f851a4401461020c5761009e565b80630b13acdf146100a357806331dfc91b146100d35780636f16af1014610108578063747e0593146101385780638f09ab5b14610154575b600080fd5b6100bd60048036038101906100b891906114f6565b61022a565b6040516100ca919061153e565b60405180910390f35b6100ed60048036038101906100e8919061158f565b610283565b6040516100ff9695949392919061165b565b60405180910390f35b610122600480360381019061011d919061158f565b61043c565b60405161012f91906117c2565b60405180910390f35b610152600480360381019061014d9190611919565b6106aa565b005b61016e60048036038101906101699190611975565b610978565b60405161017b9190611ad7565b60405180910390f35b61019e600480360381019061019991906114f6565b610d1f565b6040516101ad93929190611af9565b60405180910390f35b6101be610deb565b6040516101cb9190611b46565b60405180910390f35b6101ee60048036038101906101e991906114f6565b610df1565b005b61020a60048036038101906102059190611b61565b6111b4565b005b610214611313565b6040516102219190611bbd565b60405180910390f35b6000600160008373ffffffffffffffffffffffffffffffffffffffff1673ffffffffffffffffffffffffffffffffffffffff16815260200190815260200160002060000160019054906101000a900460ff169050919050565b60026020528060005260406000206000915090508060000160009054906101000a900473ffffffffffffffffffffffffffffffffffffffff16908060010160009054906101000a900473ffffffffffffffffffffffffffffffffffffffff16908060020180546102f290611c07565b80601f016020809104026020016040519081016040528092919081815260200182805461031e90611c07565b801561036b5780601f106103405761010080835404028352916020019161036b565b820191906000526020600020905b81548152906001019060200180831161034e57829003601f168201915b5050505050908060030160009054906101000a900460ff16908060030160019054906101000a900473ffffffffffffffffffffffffffffffffffffffff16908060040180546103b990611c07565b80601f01602080910402602001604051908101604052809291908181526020018280546103e590611c07565b80156104325780601f1061040757610100808354040283529160200191610432565b820191906000526020600020905b81548152906001019060200180831161041557829003601f168201915b5050505050905086565b610444611337565b600260008381526020019081526020016000206040518060c00160405290816000820160009054906101000a900473ffffffffffffffffffffffffffffffffffffffff1673ffffffffffffffffffffffffffffffffffffffff1673ffffffffffffffffffffffffffffffffffffffff1681526020016001820160009054906101000a900473ffffffffffffffffffffffffffffffffffffffff1673ffffffffffffffffffffffffffffffffffffffff1673ffffffffffffffffffffffffffffffffffffffff16815260200160028201805461051e90611c07565b80601f016020809104026020016040519081016040528092919081815260200182805461054a90611c07565b80156105975780601f1061056c57610100808354040283529160200191610597565b820191906000526020600020905b81548152906001019060200180831161057a57829003601f168201915b505050505081526020016003820160009054906101000a900460ff161515151581526020016003820160019054906101000a900473ffffffffffffffffffffffffffffffffffffffff1673ffffffffffffffffffffffffffffffffffffffff1673ffffffffffffffffffffffffffffffffffffffff16815260200160048201805461062190611c07565b80601f016020809104026020016040519081016040528092919081815260200182805461064d90611c07565b801561069a5780601f1061066f5761010080835404028352916020019161069a565b820191906000526020600020905b81548152906001019060200180831161067d57829003601f168201915b5050505050815250509050919050565b600160003373ffffffffffffffffffffffffffffffffffffffff1673ffffffffffffffffffffffffffffffffffffffff16815260200190815260200160002060000160019054906101000a900460ff16610739576040517f08c379a000000000000000000000000000000000000000000000000000000000815260040161073090611caa565b60405180910390fd5b6003600081548092919061074c90611cf9565b91905055506040518060c001604052803373ffffffffffffffffffffffffffffffffffffffff1681526020018373ffffffffffffffffffffffffffffffffffffffff168152602001828152602001600015158152602001600073ffffffffffffffffffffffffffffffffffffffff1681526020016040518060200160405280600081525081525060026000600354815260200190815260200160002060008201518160000160006101000a81548173ffffffffffffffffffffffffffffffffffffffff021916908373ffffffffffffffffffffffffffffffffffffffff16021790555060208201518160010160006101000a81548173ffffffffffffffffffffffffffffffffffffffff021916908373ffffffffffffffffffffffffffffffffffffffff160217905550604082015181600201908161088b9190611eed565b5060608201518160030160006101000a81548160ff02191690831515021790555060808201518160030160016101000a81548173ffffffffffffffffffffffffffffffffffffffff021916908373ffffffffffffffffffffffffffffffffffffffff16021790555060a08201518160040190816109089190611eed565b509050508173ffffffffffffffffffffffffffffffffffffffff163373ffffffffffffffffffffffffffffffffffffffff166003547f271c79974d634e0645e988cdbe7a9156534689d0594e3bcac9b3ac1ef9e91dda8460405161096c9190611fbf565b60405180910390a45050565b6109806113b1565b600160003373ffffffffffffffffffffffffffffffffffffffff1673ffffffffffffffffffffffffffffffffffffffff16815260200190815260200160002060000160009054906101000a900460ff1615610a10576040517f08c379a0000000000000000000000000000000000000000000000000000000008152600401610a079061202d565b60405180910390fd5b6040518060800160405280600115158152602001600015158152602001600067ffffffffffffffff811115610a4857610a476117ee565b5b604051908082528060200260200182016040528015610a765781602001602082028036833780820191505090505b50815260200183815250600160003373ffffffffffffffffffffffffffffffffffffffff1673ffffffffffffffffffffffffffffffffffffffff16815260200190815260200160002060008201518160000160006101000a81548160ff02191690831515021790555060208201518160000160016101000a81548160ff0219169083151502179055506040820151816001019080519060200190610b1b9291906113dd565b506060820151816002019081610b319190611eed565b509050503373ffffffffffffffffffffffffffffffffffffffff167f2dc8105a7545248d0e354c4c6b02fb583071cc719fb4bef1ca74d72d475570bc60405160405180910390a2600160003373ffffffffffffffffffffffffffffffffffffffff1673ffffffffffffffffffffffffffffffffffffffff1681526020019081526020016000206040518060800160405290816000820160009054906101000a900460ff161515151581526020016000820160019054906101000a900460ff1615151515815260200160018201805480602002602001604051908101604052809291908181526020018280548015610c7d57602002820191906000526020600020905b8160009054906101000a900473ffffffffffffffffffffffffffffffffffffffff1673ffffffffffffffffffffffffffffffffffffffff1681526020019060010190808311610c33575b50505050508152602001600282018054610c9690611c07565b80601f0160208091040260200160405190810160405280929190818152602001828054610cc290611c07565b8015610d0f5780601f10610ce457610100808354040283529160200191610d0f565b820191906000526020600020905b815481529060010190602001808311610cf257829003601f168201915b5050505050815250509050919050565b60016020528060005260406000206000915090508060000160009054906101000a900460ff16908060000160019054906101000a900460ff1690806002018054610d6890611c07565b80601f0160208091040260200160405190810160405280929190818152602001828054610d9490611c07565b8015610de15780601f10610db657610100808354040283529160200191610de1565b820191906000526020600020905b815481529060010190602001808311610dc457829003601f168201915b5050505050905083565b60035481565b600160008273ffffffffffffffffffffffffffffffffffffffff1673ffffffffffffffffffffffffffffffffffffffff16815260200190815260200160002060000160009054906101000a900460ff16610e80576040517f08c379a0000000000000000000000000000000000000000000000000000000008152600401610e7790612099565b60405180910390fd5b600160008273ffffffffffffffffffffffffffffffffffffffff1673ffffffffffffffffffffffffffffffffffffffff16815260200190815260200160002060000160019054906101000a900460ff1615610f10576040517f08c379a0000000000000000000000000000000000000000000000000000000008152600401610f0790612105565b60405180910390fd5b60005b600160008373ffffffffffffffffffffffffffffffffffffffff1673ffffffffffffffffffffffffffffffffffffffff16815260200190815260200160002060010180549050811015611059573373ffffffffffffffffffffffffffffffffffffffff16600160008473ffffffffffffffffffffffffffffffffffffffff1673ffffffffffffffffffffffffffffffffffffffff1681526020019081526020016000206001018281548110610fcb57610fca612125565b5b9060005260206000200160009054906101000a900473ffffffffffffffffffffffffffffffffffffffff1673ffffffffffffffffffffffffffffffffffffffff160361104c576040517f08c379a0000000000000000000000000000000000000000000000000000000008152600401611043906121c6565b60405180910390fd5b8080600101915050610f13565b5060018060008373ffffffffffffffffffffffffffffffffffffffff1673ffffffffffffffffffffffffffffffffffffffff16815260200190815260200160002060000160016101000a81548160ff021916908315150217905550600160008273ffffffffffffffffffffffffffffffffffffffff1673ffffffffffffffffffffffffffffffffffffffff168152602001908152602001600020600101339080600181540180825580915050600190039060005260206000200160009091909190916101000a81548173ffffffffffffffffffffffffffffffffffffffff021916908373ffffffffffffffffffffffffffffffffffffffff1602179055503373ffffffffffffffffffffffffffffffffffffffff168173ffffffffffffffffffffffffffffffffffffffff167fd5ee64cc05b0be498b4d26e3260e3df119d9bc6c6bac2e8a912351bbf36ee15160405160405180910390a350565b6002600083815260200190815260200160002060030160009054906101000a900460ff1615611218576040517f08c379a000000000000000000000000000000000000000000000000000000000815260040161120f90612232565b60405180910390fd5b60016002600084815260200190815260200160002060030160006101000a81548160ff021916908315150217905550336002600084815260200190815260200160002060030160016101000a81548173ffffffffffffffffffffffffffffffffffffffff021916908373ffffffffffffffffffffffffffffffffffffffff160217905550806002600084815260200190815260200160002060040190816112bf9190611eed565b503373ffffffffffffffffffffffffffffffffffffffff16827f70c32b7c89ed6f3c7d3a36625bcf1a369318b835b6994eed1cd4a8df117a9de7836040516113079190611fbf565b60405180910390a35050565b60008054906101000a900473ffffffffffffffffffffffffffffffffffffffff1681565b6040518060c00160405280600073ffffffffffffffffffffffffffffffffffffffff168152602001600073ffffffffffffffffffffffffffffffffffffffff16815260200160608152602001600015158152602001600073ffffffffffffffffffffffffffffffffffffffff168152602001606081525090565b604051806080016040528060001515815260200160001515815260200160608152602001606081525090565b828054828255906000526020600020908101928215611456579160200282015b828111156114555782518260006101000a81548173ffffffffffffffffffffffffffffffffffffffff021916908373ffffffffffffffffffffffffffffffffffffffff160217905550916020019190600101906113fd565b5b5090506114639190611467565b5090565b5b80821115611480576000816000905550600101611468565b5090565b6000604051905090565b600080fd5b600080fd5b600073ffffffffffffffffffffffffffffffffffffffff82169050919050565b60006114c382611498565b9050919050565b6114d3816114b8565b81146114de57600080fd5b50565b6000813590506114f0816114ca565b92915050565b60006020828403121561150c5761150b61148e565b5b600061151a848285016114e1565b91505092915050565b60008115159050919050565b61153881611523565b82525050565b6000602082019050611553600083018461152f565b92915050565b6000819050919050565b61156c81611559565b811461157757600080fd5b50565b60008135905061158981611563565b92915050565b6000602082840312156115a5576115a461148e565b5b60006115b38482850161157a565b91505092915050565b6115c5816114b8565b82525050565b600081519050919050565b600082825260208201905092915050565b60005b838110156116055780820151818401526020810190506115ea565b60008484015250505050565b6000601f19601f8301169050919050565b600061162d826115cb565b61163781856115d6565b93506116478185602086016115e7565b61165081611611565b840191505092915050565b600060c08201905061167060008301896115bc565b61167d60208301886115bc565b818103604083015261168f8187611622565b905061169e606083018661152f565b6116ab60808301856115bc565b81810360a08301526116bd8184611622565b9050979650505050505050565b6116d3816114b8565b82525050565b600082825260208201905092915050565b60006116f5826115cb565b6116ff81856116d9565b935061170f8185602086016115e7565b61171881611611565b840191505092915050565b61172c81611523565b82525050565b600060c08301600083015161174a60008601826116ca565b50602083015161175d60208601826116ca565b506040830151848203604086015261177582826116ea565b915050606083015161178a6060860182611723565b50608083015161179d60808601826116ca565b5060a083015184820360a08601526117b582826116ea565b9150508091505092915050565b600060208201905081810360008301526117dc8184611732565b905092915050565b600080fd5b600080fd5b7f4e487b7100000000000000000000000000000000000000000000000000000000600052604160045260246000fd5b61182682611611565b810181811067ffffffffffffffff82111715611845576118446117ee565b5b80604052505050565b6000611858611484565b9050611864828261181d565b919050565b600067ffffffffffffffff821115611884576118836117ee565b5b61188d82611611565b9050602081019050919050565b82818337600083830152505050565b60006118bc6118b784611869565b61184e565b9050828152602081018484840111156118d8576118d76117e9565b5b6118e384828561189a565b509392505050565b600082601f830112611900576118ff6117e4565b5b81356119108482602086016118a9565b91505092915050565b600080604083850312156119305761192f61148e565b5b600061193e858286016114e1565b925050602083013567ffffffffffffffff81111561195f5761195e611493565b5b61196b858286016118eb565b9150509250929050565b60006020828403121561198b5761198a61148e565b5b600082013567ffffffffffffffff8111156119a9576119a8611493565b5b6119b5848285016118eb565b91505092915050565b600081519050919050565b600082825260208201905092915050565b6000819050602082019050919050565b60006119f683836116ca565b60208301905092915050565b6000602082019050919050565b6000611a1a826119be565b611a2481856119c9565b9350611a2f836119da565b8060005b83811015611a60578151611a4788826119ea565b9750611a5283611a02565b925050600181019050611a33565b5085935050505092915050565b6000608083016000830151611a856000860182611723565b506020830151611a986020860182611723565b5060408301518482036040860152611ab08282611a0f565b91505060608301518482036060860152611aca82826116ea565b9150508091505092915050565b60006020820190508181036000830152611af18184611a6d565b905092915050565b6000606082019050611b0e600083018661152f565b611b1b602083018561152f565b8181036040830152611b2d8184611622565b9050949350505050565b611b4081611559565b82525050565b6000602082019050611b5b6000830184611b37565b92915050565b60008060408385031215611b7857611b7761148e565b5b6000611b868582860161157a565b925050602083013567ffffffffffffffff811115611ba757611ba6611493565b5b611bb3858286016118eb565b9150509250929050565b6000602082019050611bd260008301846115bc565b92915050565b7f4e487b7100000000000000000000000000000000000000000000000000000000600052602260045260246000fd5b60006002820490506001821680611c1f57607f821691505b602082108103611c3257611c31611bd8565b5b50919050565b7f4f6e6c7920766572696669656420646f63746f72732063616e2069737375652060008201527f707265736372697074696f6e7300000000000000000000000000000000000000602082015250565b6000611c94602d836115d6565b9150611c9f82611c38565b604082019050919050565b60006020820190508181036000830152611cc381611c87565b9050919050565b7f4e487b7100000000000000000000000000000000000000000000000000000000600052601160045260246000fd5b6000611d0482611559565b91507fffffffffffffffffffffffffffffffffffffffffffffffffffffffffffffffff8203611d3657611d35611cca565b5b600182019050919050565b60008190508160005260206000209050919050565b60006020601f8301049050919050565b600082821b905092915050565b600060088302611da37fffffffffffffffffffffffffffffffffffffffffffffffffffffffffffffffff82611d66565b611dad8683611d66565b95508019841693508086168417925050509392505050565b6000819050919050565b6000611dea611de5611de084611559565b611dc5565b611559565b9050919050565b6000819050919050565b611e0483611dcf565b611e18611e1082611df1565b848454611d73565b825550505050565b600090565b611e2d611e20565b611e38818484611dfb565b505050565b5b81811015611e5c57611e51600082611e25565b600181019050611e3e565b5050565b601f821115611ea157611e7281611d41565b611e7b84611d56565b81016020851015611e8a578190505b611e9e611e9685611d56565b830182611e3d565b50505b505050565b600082821c905092915050565b6000611ec460001984600802611ea6565b1980831691505092915050565b6000611edd8383611eb3565b9150826002028217905092915050565b611ef6826115cb565b67ffffffffffffffff811115611f0f57611f0e6117ee565b5b611f198254611c07565b611f24828285611e60565b600060209050601f831160018114611f575760008415611f45578287015190505b611f4f8582611ed1565b865550611fb7565b601f198416611f6586611d41565b60005b82811015611f8d57848901518255600182019150602085019450602081019050611f68565b86831015611faa5784890151611fa6601f891682611eb3565b8355505b6001600288020188555050505b505050505050565b60006020820190508181036000830152611fd98184611622565b905092915050565b7f416c726561647920726567697374657265640000000000000000000000000000600082015250565b60006120176012836115d6565b915061202282611fe1565b602082019050919050565b600060208201905081810360008301526120468161200a565b9050919050565b7f446f63746f72206e6f7420726567697374657265640000000000000000000000600082015250565b60006120836015836115d6565b915061208e8261204d565b602082019050919050565b600060208201905081810360008301526120b281612076565b9050919050565b7f416c726561647920766572696669656400000000000000000000000000000000600082015250565b60006120ef6010836115d6565b91506120fa826120b9565b602082019050919050565b6000602082019050818103600083015261211e816120e2565b9050919050565b7f4e487b7100000000000000000000000000000000000000000000000000000000600052603260045260246000fd5b7f416c72656164792076657269666965642062792074686973207665726966696560008201527f7200000000000000000000000000000000000000000000000000000000000000602082015250565b60006121b06021836115d6565b91506121bb82612154565b604082019050919050565b600060208201905081810360008301526121df816121a3565b9050919050565b7f507265736372697074696f6e20616c72656164792064697370656e7365640000600082015250565b600061221c601e836115d6565b9150612227826121e6565b602082019050919050565b6000602082019050818103600083015261224b8161220f565b905091905056fea264697066735822122032d5a2c2b86f8b707c120db0eeda5b248f98a2899801940a34e32e22e0358f1d64736f6c634300081c0033",
  "linkReferences": {},
  "deployedLinkReferences": {}
}