{
  "_format": "hh-sol-artifact-1",
  "contractName": "HealthChain",
  "sourceName": "contracts/HealthChain.sol",
  "abi": [
    {
      "inputs": [],
      "stateMutability": "nonpayable",
      "type": "constructor"
    },
    {
      "anonymous": false,
      "inputs": [
        {
          "indexed": true,
          "internalType": "address",
          "name": "doctor",
          "type": "address"
        }
      ],
      "name": "DoctorRegistered",
      "type": "event"
    },
    {
      "anonymous": false,
      "inputs": [
        {
          "indexed": true,
          "internalType": "address",
          "name": "doctor",
          "type": "address"
        },
        {
          "indexed": true,
          "internalType": "address",
          "name": "verifier",
          "type": "address"
        }
      ],
      "name": "DoctorVerified",
      "type": "event"
    },
    {
      "anonymous": false,
      "inputs": [
        {
          "indexed": true,
          "internalType": "address",
          "name": "pharmacist",
          "type": "address"
        }
      ],
      "name": "PharmacistRegistered",
      "type": "event"
    },
    {
      "anonymous": false,
      "inputs": [
        {
          "indexed": true,
          "internalType": "address",
          "name": "pharmacist",
          "type": "address"
        },
        {
          "indexed": true,
          "internalType": "address",
          "name": "verifier",
          "type": "address"
        }
      ],
      "name": "PharmacistVerified",
      "type": "event"
    },
    {
      "anonymous": false,
      "inputs": [
        {
          "indexed": true,
          "internalType": "uint256",
          "name": "prescriptionId",
          "type": "uint256"
        },
        {
          "indexed": true,
          "internalType": "address",
          "name": "pharmacist",
          "type": "address"
        },
        {
          "indexed": false,
          "internalType": "string",
          "name": "ipfsHash",
          "type": "string"
        }
      ],
      "name": "PrescriptionDispensed",
      "type": "event"
    },
    {
      "anonymous": false,
      "inputs": [
        {
          "indexed": true,
          "internalType": "uint256",
          "name": "prescriptionId",
          "type": "uint256"
        },
        {
          "indexed": true,
          "internalType": "address",
          "name": "doctor",
          "type": "address"
        },
        {
          "indexed": true,
          "internalType": "string",
          "name": "patientHash",
          "type": "string"
        },
        {
          "indexed": false,
          "internalType": "string",
          "name": "ipfsHash",
          "type": "string"
        }
      ],
      "name": "PrescriptionIssued",
      "type": "event"
    },
    {
      "anonymous": false,
      "inputs": [
        {
          "indexed": false,
          "internalType": "string",
          "name": "verifierType",
          "type": "string"
        },
        {
          "indexed": false,
          "internalType": "string",
          "name": "newIPFSHash",
          "type": "string"
        }
      ],
      "name": "VerifierListUpdated",
      "type": "event"
    },
    {
      "inputs": [],
      "name": "admin",
      "outputs": [
        {
          "internalType": "address",
          "name": "",
          "type": "address"
        }
      ],
      "stateMutability": "view",
      "type": "function"
    },
    {
      "inputs": [
        {
          "internalType": "uint256",
          "name": "_prescriptionId",
          "type": "uint256"
        },
        {
          "internalType": "string",
          "name": "_dispensedIPFS",
          "type": "string"
        }
      ],
      "name": "dispensePrescription",
      "outputs": [],
      "stateMutability": "nonpayable",
      "type": "function"
    },
    {
      "inputs": [],
      "name": "doctorVerifierListIPFS",
      "outputs": [
        {
          "internalType": "string",
          "name": "",
          "type": "string"
        }
      ],
      "stateMutability": "view",
      "type": "function"
    },
    {
      "inputs": [
        {
          "internalType": "address",
          "name": "",
          "type": "address"
        }
      ],
      "name": "doctors",
      "outputs": [
        {
          "internalType": "bool",
          "name": "exists",
          "type": "bool"
        },
        {
          "internalType": "bool",
          "name": "verified",
          "type": "bool"
        },
        {
          "internalType": "string",
          "name": "ipfsHash",
          "type": "string"
        }
      ],
      "stateMutability": "view",
      "type": "function"
    },
    {
      "inputs": [],
      "name": "getDoctorVerifierList",
      "outputs": [
        {
          "internalType": "string",
          "name": "",
          "type": "string"
        }
      ],
      "stateMutability": "view",
      "type": "function"
    },
    {
      "inputs": [],
      "name": "getPharmacyVerifierList",
      "outputs": [
        {
          "internalType": "string",
          "name": "",
          "type": "string"
        }
      ],
      "stateMutability": "view",
      "type": "function"
    },
    {
      "inputs": [
        {
          "internalType": "uint256",
          "name": "_prescriptionId",
          "type": "uint256"
        }
      ],
      "name": "getPrescription",
      "outputs": [
        {
          "components": [
            {
              "internalType": "address",
              "name": "doctor",
              "type": "address"
            },
            {
              "internalType": "string",
              "name": "patientHash",
              "type": "string"
            },
            {
              "internalType": "string",
              "name": "prescriptionIPFS",
              "type": "string"
            },
            {
              "internalType": "bool",
              "name": "dispensed",
              "type": "bool"
            },
            {
              "internalType": "address",
              "name": "pharmacist",
              "type": "address"
            },
            {
              "internalType": "string",
              "name": "dispensedIPFS",
              "type": "string"
            }
          ],
          "internalType": "struct HealthChain.Prescription",
          "name": "",
          "type": "tuple"
        }
      ],
      "stateMutability": "view",
      "type": "function"
    },
    {
      "inputs": [
        {
          "internalType": "address",
          "name": "_doctor",
          "type": "address"
        }
      ],
      "name": "isDoctorVerified",
      "outputs": [
        {
          "internalType": "bool",
          "name": "",
          "type": "bool"
        }
      ],
      "stateMutability": "view",
      "type": "function"
    },
    {
      "inputs": [
        {
          "internalType": "address",
          "name": "_pharmacist",
          "type": "address"
        }
      ],
      "name": "isPharmacistVerified",
      "outputs": [
        {
          "internalType": "bool",
          "name": "",
          "type": "bool"
        }
      ],
      "stateMutability": "view",
      "type": "function"
    },
    {
      "inputs": [
        {
          "internalType": "string",
          "name": "_patientHash",
          "type": "string"
        },
        {
          "internalType": "string",
          "name": "_prescriptionIPFS",
          "type": "string"
        }
      ],
      "name": "issuePrescription",
      "outputs": [],
      "stateMutability": "nonpayable",
      "type": "function"
    },
    {
      "inputs": [
        {
          "internalType": "address",
          "name": "",
          "type": "address"
        }
      ],
      "name": "pharmacists",
      "outputs": [
        {
          "internalType": "bool",
          "name": "exists",
          "type": "bool"
        },
        {
          "internalType": "bool",
          "name": "verified",
          "type": "bool"
        },
        {
          "internalType": "string",
          "name": "ipfsHash",
          "type": "string"
        }
      ],
      "stateMutability": "view",
      "type": "function"
    },
    {
      "inputs": [],
      "name": "pharmacyVerifierListIPFS",
      "outputs": [
        {
          "internalType": "string",
          "name": "",
          "type": "string"
        }
      ],
      "stateMutability": "view",
      "type": "function"
    },
    {
      "inputs": [],
      "name": "prescriptionCount",
      "outputs": [
        {
          "internalType": "uint256",
          "name": "",
          "type": "uint256"
        }
      ],
      "stateMutability": "view",
      "type": "function"
    },
    {
      "inputs": [
        {
          "internalType": "uint256",
          "name": "",
          "type": "uint256"
        }
      ],
      "name": "prescriptions",
      "outputs": [
        {
          "internalType": "address",
          "name": "doctor",
          "type": "address"
        },
        {
          "internalType": "string",
          "name": "patientHash",
          "type": "string"
        },
        {
          "internalType": "string",
          "name": "prescriptionIPFS",
          "type": "string"
        },
        {
          "internalType": "bool",
          "name": "dispensed",
          "type": "bool"
        },
        {
          "internalType": "address",
          "name": "pharmacist",
          "type": "address"
        },
        {
          "internalType": "string",
          "name": "dispensedIPFS",
          "type": "string"
        }
      ],
      "stateMutability": "view",
      "type": "function"
    },
    {
      "inputs": [
        {
          "internalType": "string",
          "name": "_ipfsHash",
          "type": "string"
        }
      ],
      "name": "registerDoctor",
      "outputs": [],
      "stateMutability": "nonpayable",
      "type": "function"
    },
    {
      "inputs": [
        {
          "internalType": "string",
          "name": "_ipfsHash",
          "type": "string"
        }
      ],
      "name": "registerPharmacist",
      "outputs": [],
      "stateMutability": "nonpayable",
      "type": "function"
    },
    {
      "inputs": [
        {
          "internalType": "string",
          "name": "_newIPFSHash",
          "type": "string"
        }
      ],
      "name": "updateDoctorVerifierList",
      "outputs": [],
      "stateMutability": "nonpayable",
      "type": "function"
    },
    {
      "inputs": [
        {
          "internalType": "string",
          "name": "_newIPFSHash",
          "type": "string"
        }
      ],
      "name": "updatePharmacyVerifierList",
      "outputs": [],
      "stateMutability": "nonpayable",
      "type": "function"
    },
    {
      "inputs": [
        {
          "internalType": "address",
          "name": "_doctor",
          "type": "address"
        }
      ],
      "name": "verifyDoctor",
      "outputs": [],
      "stateMutability": "nonpayable",
      "type": "function"
    },
    {
      "inputs": [
        {
          "internalType": "address",
          "name": "_pharmacist",
          "type": "address"
        }
      ],
      "name": "verifyPharmacist",
      "outputs": [],
      "stateMutability": "nonpayable",
      "type": "function"
    }
  ],
  "bytecode": "0x6080604052348015600f57600080fd5b50336000806101000a81548173ffffffffffffffffffffffffffffffffffffffff021916908373ffffffffffffffffffffffffffffffffffffffff1602179055506131398061005f6000396000f3fe608060405234801561001057600080fd5b506004361061012c5760003560e01c80638f09ab5b116100ad578063d80cb05c11610071578063d80cb05c1461035e578063ec4cc78c1461037a578063eef02c2e14610396578063f851a440146103b4578063ff16007e146103d25761012c565b80638f09ab5b146102ba578063a9583c22146102d6578063b655849814610308578063c845135814610326578063d1a06f46146103425761012c565b80633c5d5b80116100f45780633c5d5b8014610216578063462c6d13146102345780635e10df32146102505780636f16af101461026e5780637329f4601461029e5761012c565b80630b13acdf1461013157806318a6640c146101615780631abf575a1461017f5780632b72938e146101b157806331dfc91b146101e1575b600080fd5b61014b60048036038101906101469190612167565b6103ee565b60405161015891906121af565b60405180910390f35b610169610447565b604051610176919061225a565b60405180910390f35b61019960048036038101906101949190612167565b6104d5565b6040516101a89392919061227c565b60405180910390f35b6101cb60048036038101906101c69190612167565b6105a1565b6040516101d891906121af565b60405180910390f35b6101fb60048036038101906101f691906122f0565b6105fa565b60405161020d9695949392919061232c565b60405180910390f35b61021e61081b565b60405161022b919061225a565b60405180910390f35b61024e60048036038101906102499190612167565b6108a9565b005b610258610cdb565b604051610265919061225a565b60405180910390f35b610288600480360381019061028391906122f0565b610d6d565b60405161029591906124a1565b60405180910390f35b6102b860048036038101906102b391906125f8565b611017565b005b6102d460048036038101906102cf91906125f8565b6110ef565b005b6102f060048036038101906102eb9190612167565b6112ea565b6040516102ff9392919061227c565b60405180910390f35b6103106113b6565b60405161031d9190612650565b60405180910390f35b610340600480360381019061033b919061266b565b6113bc565b005b61035c600480360381019061035791906125f8565b611642565b005b61037860048036038101906103739190612167565b61171a565b005b610394600480360381019061038f91906126e3565b611b4b565b005b61039e611d39565b6040516103ab919061225a565b60405180910390f35b6103bc611dcb565b6040516103c9919061273f565b60405180910390f35b6103ec60048036038101906103e791906125f8565b611def565b005b6000600160008373ffffffffffffffffffffffffffffffffffffffff1673ffffffffffffffffffffffffffffffffffffffff16815260200190815260200160002060000160019054906101000a900460ff169050919050565b6005805461045490612789565b80601f016020809104026020016040519081016040528092919081815260200182805461048090612789565b80156104cd5780601f106104a2576101008083540402835291602001916104cd565b820191906000526020600020905b8154815290600101906020018083116104b057829003601f168201915b505050505081565b60026020528060005260406000206000915090508060000160009054906101000a900460ff16908060000160019054906101000a900460ff169080600201805461051e90612789565b80601f016020809104026020016040519081016040528092919081815260200182805461054a90612789565b80156105975780601f1061056c57610100808354040283529160200191610597565b820191906000526020600020905b81548152906001019060200180831161057a57829003601f168201915b5050505050905083565b6000600260008373ffffffffffffffffffffffffffffffffffffffff1673ffffffffffffffffffffffffffffffffffffffff16815260200190815260200160002060000160019054906101000a900460ff169050919050565b60036020528060005260406000206000915090508060000160009054906101000a900473ffffffffffffffffffffffffffffffffffffffff169080600101805461064390612789565b80601f016020809104026020016040519081016040528092919081815260200182805461066f90612789565b80156106bc5780601f10610691576101008083540402835291602001916106bc565b820191906000526020600020905b81548152906001019060200180831161069f57829003601f168201915b5050505050908060020180546106d190612789565b80601f01602080910402602001604051908101604052809291908181526020018280546106fd90612789565b801561074a5780601f1061071f5761010080835404028352916020019161074a565b820191906000526020600020905b81548152906001019060200180831161072d57829003601f168201915b5050505050908060030160009054906101000a900460ff16908060030160019054906101000a900473ffffffffffffffffffffffffffffffffffffffff169080600401805461079890612789565b80601f01602080910402602001604051908101604052809291908181526020018280546107c490612789565b80156108115780601f106107e657610100808354040283529160200191610811565b820191906000526020600020905b8154815290600101906020018083116107f457829003601f168201915b5050505050905086565b6006805461082890612789565b80601f016020809104026020016040519081016040528092919081815260200182805461085490612789565b80156108a15780601f10610876576101008083540402835291602001916108a1565b820191906000526020600020905b81548152906001019060200180831161088457829003601f168201915b505050505081565b600260008273ffffffffffffffffffffffffffffffffffffffff1673ffffffffffffffffffffffffffffffffffffffff16815260200190815260200160002060000160009054906101000a900460ff16610938576040517f08c379a000000000000000000000000000000000000000000000000000000000815260040161092f90612806565b60405180910390fd5b600260008273ffffffffffffffffffffffffffffffffffffffff1673ffffffffffffffffffffffffffffffffffffffff16815260200190815260200160002060000160019054906101000a900460ff16156109c8576040517f08c379a00000000000000000000000000000000000000000000000000000000081526004016109bf90612872565b60405180910390fd5b3373ffffffffffffffffffffffffffffffffffffffff168173ffffffffffffffffffffffffffffffffffffffff1603610a36576040517f08c379a0000000000000000000000000000000000000000000000000000000008152600401610a2d906128de565b60405180910390fd5b60005b600260008373ffffffffffffffffffffffffffffffffffffffff1673ffffffffffffffffffffffffffffffffffffffff16815260200190815260200160002060010180549050811015610b7f573373ffffffffffffffffffffffffffffffffffffffff16600260008473ffffffffffffffffffffffffffffffffffffffff1673ffffffffffffffffffffffffffffffffffffffff1681526020019081526020016000206001018281548110610af157610af06128fe565b5b9060005260206000200160009054906101000a900473ffffffffffffffffffffffffffffffffffffffff1673ffffffffffffffffffffffffffffffffffffffff1603610b72576040517f08c379a0000000000000000000000000000000000000000000000000000000008152600401610b699061299f565b60405180910390fd5b8080600101915050610a39565b506001600260008373ffffffffffffffffffffffffffffffffffffffff1673ffffffffffffffffffffffffffffffffffffffff16815260200190815260200160002060000160016101000a81548160ff021916908315150217905550600260008273ffffffffffffffffffffffffffffffffffffffff1673ffffffffffffffffffffffffffffffffffffffff168152602001908152602001600020600101339080600181540180825580915050600190039060005260206000200160009091909190916101000a81548173ffffffffffffffffffffffffffffffffffffffff021916908373ffffffffffffffffffffffffffffffffffffffff1602179055503373ffffffffffffffffffffffffffffffffffffffff168173ffffffffffffffffffffffffffffffffffffffff167f19dcb63de6975856487257e5e0fc6a95ec978af3636fd966f4d4aa4347ac89c760405160405180910390a350565b606060058054610cea90612789565b80601f0160208091040260200160405190810160405280929190818152602001828054610d1690612789565b8015610d635780601f10610d3857610100808354040283529160200191610d63565b820191906000526020600020905b815481529060010190602001808311610d4657829003601f168201915b5050505050905090565b610d75611fea565b600360008381526020019081526020016000206040518060c00160405290816000820160009054906101000a900473ffffffffffffffffffffffffffffffffffffffff1673ffffffffffffffffffffffffffffffffffffffff1673ffffffffffffffffffffffffffffffffffffffff168152602001600182018054610df990612789565b80601f0160208091040260200160405190810160405280929190818152602001828054610e2590612789565b8015610e725780601f10610e4757610100808354040283529160200191610e72565b820191906000526020600020905b815481529060010190602001808311610e5557829003601f168201915b50505050508152602001600282018054610e8b90612789565b80601f0160208091040260200160405190810160405280929190818152602001828054610eb790612789565b8015610f045780601f10610ed957610100808354040283529160200191610f04565b820191906000526020600020905b815481529060010190602001808311610ee757829003601f168201915b505050505081526020016003820160009054906101000a900460ff161515151581526020016003820160019054906101000a900473ffffffffffffffffffffffffffffffffffffffff1673ffffffffffffffffffffffffffffffffffffffff1673ffffffffffffffffffffffffffffffffffffffff168152602001600482018054610f8e90612789565b80601f0160208091040260200160405190810160405280929190818152602001828054610fba90612789565b80156110075780601f10610fdc57610100808354040283529160200191611007565b820191906000526020600020905b815481529060010190602001808311610fea57829003601f168201915b5050505050815250509050919050565b60008054906101000a900473ffffffffffffffffffffffffffffffffffffffff1673ffffffffffffffffffffffffffffffffffffffff163373ffffffffffffffffffffffffffffffffffffffff16146110a5576040517f08c379a000000000000000000000000000000000000000000000000000000000815260040161109c90612a31565b60405180910390fd5b80600690816110b49190612bfd565b507f2727ce149c4fd736e091907e1828de3d2f79e9e4cea9519480fd697a24e7cf96816040516110e49190612d1b565b60405180910390a150565b600160003373ffffffffffffffffffffffffffffffffffffffff1673ffffffffffffffffffffffffffffffffffffffff16815260200190815260200160002060000160009054906101000a900460ff161561117f576040517f08c379a000000000000000000000000000000000000000000000000000000000815260040161117690612d9c565b60405180910390fd5b6040518060800160405280600115158152602001600015158152602001600067ffffffffffffffff8111156111b7576111b66124cd565b5b6040519080825280602002602001820160405280156111e55781602001602082028036833780820191505090505b50815260200182815250600160003373ffffffffffffffffffffffffffffffffffffffff1673ffffffffffffffffffffffffffffffffffffffff16815260200190815260200160002060008201518160000160006101000a81548160ff02191690831515021790555060208201518160000160016101000a81548160ff021916908315150217905550604082015181600101908051906020019061128a92919061204e565b5060608201518160020190816112a09190612bfd565b509050503373ffffffffffffffffffffffffffffffffffffffff167f2dc8105a7545248d0e354c4c6b02fb583071cc719fb4bef1ca74d72d475570bc60405160405180910390a250565b60016020528060005260406000206000915090508060000160009054906101000a900460ff16908060000160019054906101000a900460ff169080600201805461133390612789565b80601f016020809104026020016040519081016040528092919081815260200182805461135f90612789565b80156113ac5780601f10611381576101008083540402835291602001916113ac565b820191906000526020600020905b81548152906001019060200180831161138f57829003601f168201915b5050505050905083565b60045481565b600160003373ffffffffffffffffffffffffffffffffffffffff1673ffffffffffffffffffffffffffffffffffffffff16815260200190815260200160002060000160019054906101000a900460ff1661144b576040517f08c379a000000000000000000000000000000000000000000000000000000000815260040161144290612e2e565b60405180910390fd5b6004600081548092919061145e90612e7d565b91905055506040518060c001604052803373ffffffffffffffffffffffffffffffffffffffff168152602001838152602001828152602001600015158152602001600073ffffffffffffffffffffffffffffffffffffffff1681526020016040518060200160405280600081525081525060036000600454815260200190815260200160002060008201518160000160006101000a81548173ffffffffffffffffffffffffffffffffffffffff021916908373ffffffffffffffffffffffffffffffffffffffff16021790555060208201518160010190816115409190612bfd565b5060408201518160020190816115569190612bfd565b5060608201518160030160006101000a81548160ff02191690831515021790555060808201518160030160016101000a81548173ffffffffffffffffffffffffffffffffffffffff021916908373ffffffffffffffffffffffffffffffffffffffff16021790555060a08201518160040190816115d39190612bfd565b50905050816040516115e59190612f01565b60405180910390203373ffffffffffffffffffffffffffffffffffffffff166004547f438ffc49c7517b5a34de8bdd2e07f9806928049e479da688312c0c9c350b84c384604051611636919061225a565b60405180910390a45050565b60008054906101000a900473ffffffffffffffffffffffffffffffffffffffff1673ffffffffffffffffffffffffffffffffffffffff163373ffffffffffffffffffffffffffffffffffffffff16146116d0576040517f08c379a00000000000000000000000000000000000000000000000000000000081526004016116c790612a31565b60405180910390fd5b80600590816116df9190612bfd565b507f2727ce149c4fd736e091907e1828de3d2f79e9e4cea9519480fd697a24e7cf968160405161170f9190612f64565b60405180910390a150565b600160008273ffffffffffffffffffffffffffffffffffffffff1673ffffffffffffffffffffffffffffffffffffffff16815260200190815260200160002060000160009054906101000a900460ff166117a9576040517f08c379a00000000000000000000000000000000000000000000000000000000081526004016117a090612fe5565b60405180910390fd5b600160008273ffffffffffffffffffffffffffffffffffffffff1673ffffffffffffffffffffffffffffffffffffffff16815260200190815260200160002060000160019054906101000a900460ff1615611839576040517f08c379a000000000000000000000000000000000000000000000000000000000815260040161183090612872565b60405180910390fd5b3373ffffffffffffffffffffffffffffffffffffffff168173ffffffffffffffffffffffffffffffffffffffff16036118a7576040517f08c379a000000000000000000000000000000000000000000000000000000000815260040161189e906128de565b60405180910390fd5b60005b600160008373ffffffffffffffffffffffffffffffffffffffff1673ffffffffffffffffffffffffffffffffffffffff168152602001908152602001600020600101805490508110156119f0573373ffffffffffffffffffffffffffffffffffffffff16600160008473ffffffffffffffffffffffffffffffffffffffff1673ffffffffffffffffffffffffffffffffffffffff1681526020019081526020016000206001018281548110611962576119616128fe565b5b9060005260206000200160009054906101000a900473ffffffffffffffffffffffffffffffffffffffff1673ffffffffffffffffffffffffffffffffffffffff16036119e3576040517f08c379a00000000000000000000000000000000000000000000000000000000081526004016119da9061299f565b60405180910390fd5b80806001019150506118aa565b5060018060008373ffffffffffffffffffffffffffffffffffffffff1673ffffffffffffffffffffffffffffffffffffffff16815260200190815260200160002060000160016101000a81548160ff021916908315150217905550600160008273ffffffffffffffffffffffffffffffffffffffff1673ffffffffffffffffffffffffffffffffffffffff168152602001908152602001600020600101339080600181540180825580915050600190039060005260206000200160009091909190916101000a81548173ffffffffffffffffffffffffffffffffffffffff021916908373ffffffffffffffffffffffffffffffffffffffff1602179055503373ffffffffffffffffffffffffffffffffffffffff168173ffffffffffffffffffffffffffffffffffffffff167fd5ee64cc05b0be498b4d26e3260e3df119d9bc6c6bac2e8a912351bbf36ee15160405160405180910390a350565b6003600083815260200190815260200160002060030160009054906101000a900460ff1615611baf576040517f08c379a0000000000000000000000000000000000000000000000000000000008152600401611ba690613051565b60405180910390fd5b600260003373ffffffffffffffffffffffffffffffffffffffff1673ffffffffffffffffffffffffffffffffffffffff16815260200190815260200160002060000160019054906101000a900460ff16611c3e576040517f08c379a0000000000000000000000000000000000000000000000000000000008152600401611c35906130e3565b60405180910390fd5b60016003600084815260200190815260200160002060030160006101000a81548160ff021916908315150217905550336003600084815260200190815260200160002060030160016101000a81548173ffffffffffffffffffffffffffffffffffffffff021916908373ffffffffffffffffffffffffffffffffffffffff16021790555080600360008481526020019081526020016000206004019081611ce59190612bfd565b503373ffffffffffffffffffffffffffffffffffffffff16827f70c32b7c89ed6f3c7d3a36625bcf1a369318b835b6994eed1cd4a8df117a9de783604051611d2d919061225a565b60405180910390a35050565b606060068054611d4890612789565b80601f0160208091040260200160405190810160405280929190818152602001828054611d7490612789565b8015611dc15780601f10611d9657610100808354040283529160200191611dc1565b820191906000526020600020905b815481529060010190602001808311611da457829003601f168201915b5050505050905090565b60008054906101000a900473ffffffffffffffffffffffffffffffffffffffff1681565b600260003373ffffffffffffffffffffffffffffffffffffffff1673ffffffffffffffffffffffffffffffffffffffff16815260200190815260200160002060000160009054906101000a900460ff1615611e7f576040517f08c379a0000000000000000000000000000000000000000000000000000000008152600401611e7690612d9c565b60405180910390fd5b6040518060800160405280600115158152602001600015158152602001600067ffffffffffffffff811115611eb757611eb66124cd565b5b604051908082528060200260200182016040528015611ee55781602001602082028036833780820191505090505b50815260200182815250600260003373ffffffffffffffffffffffffffffffffffffffff1673ffffffffffffffffffffffffffffffffffffffff16815260200190815260200160002060008201518160000160006101000a81548160ff02191690831515021790555060208201518160000160016101000a81548160ff0219169083151502179055506040820151816001019080519060200190611f8a92919061204e565b506060820151816002019081611fa09190612bfd565b509050503373ffffffffffffffffffffffffffffffffffffffff167f6c217f4bf5d538fdbcbfa71cabb51e380ac4b3d37b09b49a5e75b4799312206c60405160405180910390a250565b6040518060c00160405280600073ffffffffffffffffffffffffffffffffffffffff1681526020016060815260200160608152602001600015158152602001600073ffffffffffffffffffffffffffffffffffffffff168152602001606081525090565b8280548282559060005260206000209081019282156120c7579160200282015b828111156120c65782518260006101000a81548173ffffffffffffffffffffffffffffffffffffffff021916908373ffffffffffffffffffffffffffffffffffffffff1602179055509160200191906001019061206e565b5b5090506120d491906120d8565b5090565b5b808211156120f15760008160009055506001016120d9565b5090565b6000604051905090565b600080fd5b600080fd5b600073ffffffffffffffffffffffffffffffffffffffff82169050919050565b600061213482612109565b9050919050565b61214481612129565b811461214f57600080fd5b50565b6000813590506121618161213b565b92915050565b60006020828403121561217d5761217c6120ff565b5b600061218b84828501612152565b91505092915050565b60008115159050919050565b6121a981612194565b82525050565b60006020820190506121c460008301846121a0565b92915050565b600081519050919050565b600082825260208201905092915050565b60005b838110156122045780820151818401526020810190506121e9565b60008484015250505050565b6000601f19601f8301169050919050565b600061222c826121ca565b61223681856121d5565b93506122468185602086016121e6565b61224f81612210565b840191505092915050565b600060208201905081810360008301526122748184612221565b905092915050565b600060608201905061229160008301866121a0565b61229e60208301856121a0565b81810360408301526122b08184612221565b9050949350505050565b6000819050919050565b6122cd816122ba565b81146122d857600080fd5b50565b6000813590506122ea816122c4565b92915050565b600060208284031215612306576123056120ff565b5b6000612314848285016122db565b91505092915050565b61232681612129565b82525050565b600060c082019050612341600083018961231d565b81810360208301526123538188612221565b905081810360408301526123678187612221565b905061237660608301866121a0565b612383608083018561231d565b81810360a08301526123958184612221565b9050979650505050505050565b6123ab81612129565b82525050565b600082825260208201905092915050565b60006123cd826121ca565b6123d781856123b1565b93506123e78185602086016121e6565b6123f081612210565b840191505092915050565b61240481612194565b82525050565b600060c08301600083015161242260008601826123a2565b506020830151848203602086015261243a82826123c2565b9150506040830151848203604086015261245482826123c2565b915050606083015161246960608601826123fb565b50608083015161247c60808601826123a2565b5060a083015184820360a086015261249482826123c2565b9150508091505092915050565b600060208201905081810360008301526124bb818461240a565b905092915050565b600080fd5b600080fd5b7f4e487b7100000000000000000000000000000000000000000000000000000000600052604160045260246000fd5b61250582612210565b810181811067ffffffffffffffff82111715612524576125236124cd565b5b80604052505050565b60006125376120f5565b905061254382826124fc565b919050565b600067ffffffffffffffff821115612563576125626124cd565b5b61256c82612210565b9050602081019050919050565b82818337600083830152505050565b600061259b61259684612548565b61252d565b9050828152602081018484840111156125b7576125b66124c8565b5b6125c2848285612579565b509392505050565b600082601f8301126125df576125de6124c3565b5b81356125ef848260208601612588565b91505092915050565b60006020828403121561260e5761260d6120ff565b5b600082013567ffffffffffffffff81111561262c5761262b612104565b5b612638848285016125ca565b91505092915050565b61264a816122ba565b82525050565b60006020820190506126656000830184612641565b92915050565b60008060408385031215612682576126816120ff565b5b600083013567ffffffffffffffff8111156126a05761269f612104565b5b6126ac858286016125ca565b925050602083013567ffffffffffffffff8111156126cd576126cc612104565b5b6126d9858286016125ca565b9150509250929050565b600080604083850312156126fa576126f96120ff565b5b6000612708858286016122db565b925050602083013567ffffffffffffffff81111561272957612728612104565b5b612735858286016125ca565b9150509250929050565b6000602082019050612754600083018461231d565b92915050565b7f4e487b7100000000000000000000000000000000000000000000000000000000600052602260045260246000fd5b600060028204905060018216806127a157607f821691505b6020821081036127b4576127b361275a565b5b50919050565b7f506861726d6163697374206e6f74207265676973746572656400000000000000600082015250565b60006127f06019836121d5565b91506127fb826127ba565b602082019050919050565b6000602082019050818103600083015261281f816127e3565b9050919050565b7f416c726561647920766572696669656400000000000000000000000000000000600082015250565b600061285c6010836121d5565b915061286782612826565b602082019050919050565b6000602082019050818103600083015261288b8161284f565b9050919050565b7f43616e6e6f74207665726966792073656c660000000000000000000000000000600082015250565b60006128c86012836121d5565b91506128d382612892565b602082019050919050565b600060208201905081810360008301526128f7816128bb565b9050919050565b7f4e487b7100000000000000000000000000000000000000000000000000000000600052603260045260246000fd5b7f416c72656164792076657269666965642062792074686973207665726966696560008201527f7200000000000000000000000000000000000000000000000000000000000000602082015250565b60006129896021836121d5565b91506129948261292d565b604082019050919050565b600060208201905081810360008301526129b88161297c565b9050919050565b7f4f6e6c79206f776e65722063616e2063616c6c20746869732066756e6374696f60008201527f6e00000000000000000000000000000000000000000000000000000000000000602082015250565b6000612a1b6021836121d5565b9150612a26826129bf565b604082019050919050565b60006020820190508181036000830152612a4a81612a0e565b9050919050565b60008190508160005260206000209050919050565b60006020601f8301049050919050565b600082821b905092915050565b600060088302612ab37fffffffffffffffffffffffffffffffffffffffffffffffffffffffffffffffff82612a76565b612abd8683612a76565b95508019841693508086168417925050509392505050565b6000819050919050565b6000612afa612af5612af0846122ba565b612ad5565b6122ba565b9050919050565b6000819050919050565b612b1483612adf565b612b28612b2082612b01565b848454612a83565b825550505050565b600090565b612b3d612b30565b612b48818484612b0b565b505050565b5b81811015612b6c57612b61600082612b35565b600181019050612b4e565b5050565b601f821115612bb157612b8281612a51565b612b8b84612a66565b81016020851015612b9a578190505b612bae612ba685612a66565b830182612b4d565b50505b505050565b600082821c905092915050565b6000612bd460001984600802612bb6565b1980831691505092915050565b6000612bed8383612bc3565b9150826002028217905092915050565b612c06826121ca565b67ffffffffffffffff811115612c1f57612c1e6124cd565b5b612c298254612789565b612c34828285612b70565b600060209050601f831160018114612c675760008415612c55578287015190505b612c5f8582612be1565b865550612cc7565b601f198416612c7586612a51565b60005b82811015612c9d57848901518255600182019150602085019450602081019050612c78565b86831015612cba5784890151612cb6601f891682612bc3565b8355505b6001600288020188555050505b505050505050565b7f506861726d61637956657269666965724c697374000000000000000000000000600082015250565b6000612d056014836121d5565b9150612d1082612ccf565b602082019050919050565b60006040820190508181036000830152612d3481612cf8565b90508181036020830152612d488184612221565b905092915050565b7f416c726561647920726567697374657265640000000000000000000000000000600082015250565b6000612d866012836121d5565b9150612d9182612d50565b602082019050919050565b60006020820190508181036000830152612db581612d79565b9050919050565b7f4f6e6c7920766572696669656420646f63746f72732063616e2069737375652060008201527f707265736372697074696f6e7300000000000000000000000000000000000000602082015250565b6000612e18602d836121d5565b9150612e2382612dbc565b604082019050919050565b60006020820190508181036000830152612e4781612e0b565b9050919050565b7f4e487b7100000000000000000000000000000000000000000000000000000000600052601160045260246000fd5b6000612e88826122ba565b91507fffffffffffffffffffffffffffffffffffffffffffffffffffffffffffffffff8203612eba57612eb9612e4e565b5b600182019050919050565b600081905092915050565b6000612edb826121ca565b612ee58185612ec5565b9350612ef58185602086016121e6565b80840191505092915050565b6000612f0d8284612ed0565b915081905092915050565b7f446f63746f7256657269666965724c6973740000000000000000000000000000600082015250565b6000612f4e6012836121d5565b9150612f5982612f18565b602082019050919050565b60006040820190508181036000830152612f7d81612f41565b90508181036020830152612f918184612221565b905092915050565b7f446f63746f72206e6f7420726567697374657265640000000000000000000000600082015250565b6000612fcf6015836121d5565b9150612fda82612f99565b602082019050919050565b60006020820190508181036000830152612ffe81612fc2565b9050919050565b7f507265736372697074696f6e20616c72656164792064697370656e7365640000600082015250565b600061303b601e836121d5565b915061304682613005565b602082019050919050565b6000602082019050818103600083015261306a8161302e565b9050919050565b7f4f6e6c7920766572696669656420706861726d6163697374732063616e20646960008201527f7370656e736520707265736372697074696f6e73000000000000000000000000602082015250565b60006130cd6034836121d5565b91506130d882613071565b604082019050919050565b600060208201905081810360008301526130fc816130c0565b905091905056fea2646970667358221220d8ad0e9882a92ebe4250214d96a90545060d9facd91afeba86c5525d55d923a664736f6c634300081c0033",
  "linkReferences": {},
  "deployedLinkReferences": {}
}